{
  "_format": "hh-sol-artifact-1",
  "contractName": "Voting",
  "sourceName": "contracts/Voting.sol",
  "abi": [
    {
      "inputs": [
        {
          "internalType": "string",
          "name": "candidate",
          "type": "string"
        }
      ],
      "name": "getVotes",
      "outputs": [
        {
          "internalType": "uint256",
          "name": "",
          "type": "uint256"
        }
      ],
      "stateMutability": "view",
      "type": "function"
    },
    {
      "inputs": [
        {
          "internalType": "string",
          "name": "candidate",
          "type": "string"
        }
      ],
      "name": "vote",
      "outputs": [],
      "stateMutability": "nonpayable",
      "type": "function"
    },
    {
      "inputs": [
        {
          "internalType": "string",
          "name": "",
          "type": "string"
        }
      ],
      "name": "votes",
      "outputs": [
        {
          "internalType": "uint256",
          "name": "",
          "type": "uint256"
        }
      ],
      "stateMutability": "view",
      "type": "function"
    }
  ],
  "bytecode": "0x608060405234801561001057600080fd5b5061045a806100206000396000f3fe608060405234801561001057600080fd5b50600436106100415760003560e01c8063805265e514610046578063b99ef1fa14610076578063fc36e15b146100a6575b600080fd5b610060600480360381019061005b91906102a8565b6100c2565b60405161006d919061030a565b60405180910390f35b610090600480360381019061008b91906102a8565b6100e9565b60405161009d919061030a565b60405180910390f35b6100c060048036038101906100bb91906102a8565b610117565b005b600080826040516100d39190610396565b9081526020016040518091039020549050919050565b6000818051602081018201805184825260208301602085012081835280955050505050506000915090505481565b6000816040516101279190610396565b90815260200160405180910390206000815480929190610146906103dc565b919050555050565b6000604051905090565b600080fd5b600080fd5b600080fd5b600080fd5b6000601f19601f8301169050919050565b7f4e487b7100000000000000000000000000000000000000000000000000000000600052604160045260246000fd5b6101b58261016c565b810181811067ffffffffffffffff821117156101d4576101d361017d565b5b80604052505050565b60006101e761014e565b90506101f382826101ac565b919050565b600067ffffffffffffffff8211156102135761021261017d565b5b61021c8261016c565b9050602081019050919050565b82818337600083830152505050565b600061024b610246846101f8565b6101dd565b90508281526020810184848401111561026757610266610167565b5b610272848285610229565b509392505050565b600082601f83011261028f5761028e610162565b5b813561029f848260208601610238565b91505092915050565b6000602082840312156102be576102bd610158565b5b600082013567ffffffffffffffff8111156102dc576102db61015d565b5b6102e88482850161027a565b91505092915050565b6000819050919050565b610304816102f1565b82525050565b600060208201905061031f60008301846102fb565b92915050565b600081519050919050565b600081905092915050565b60005b8381101561035957808201518184015260208101905061033e565b60008484015250505050565b600061037082610325565b61037a8185610330565b935061038a81856020860161033b565b80840191505092915050565b60006103a28284610365565b915081905092915050565b7f4e487b7100000000000000000000000000000000000000000000000000000000600052601160045260246000fd5b60006103e7826102f1565b91507fffffffffffffffffffffffffffffffffffffffffffffffffffffffffffffffff8203610419576104186103ad565b5b60018201905091905056fea26469706673582212205cee4e8559d244825559ea8375dfae4f81418ed0d0b13d9970ef29417ee88a3964736f6c63430008130033",
  "linkReferences": {},
  "deployedLinkReferences": {}
}